{
  "contractName": "FundUsage",
  "abi": [
    {
      "inputs": [
        {
          "internalType": "uint256",
          "name": "",
          "type": "uint256"
        }
      ],
      "name": "expenses",
      "outputs": [
        {
          "internalType": "string",
          "name": "item",
          "type": "string"
        },
        {
          "internalType": "string",
          "name": "date",
          "type": "string"
        },
        {
          "internalType": "string",
          "name": "name",
          "type": "string"
        },
        {
          "internalType": "uint256",
          "name": "times",
          "type": "uint256"
        },
        {
          "internalType": "uint256",
          "name": "amount",
          "type": "uint256"
        },
        {
          "internalType": "uint256",
          "name": "totalAmount",
          "type": "uint256"
        },
        {
          "internalType": "uint256",
          "name": "personalExpense",
          "type": "uint256"
        },
        {
          "internalType": "uint256",
          "name": "publicExpense",
          "type": "uint256"
        }
      ],
      "stateMutability": "view",
      "type": "function",
      "constant": true
    },
    {
      "inputs": [
        {
          "internalType": "string",
          "name": "_item",
          "type": "string"
        },
        {
          "internalType": "string",
          "name": "_date",
          "type": "string"
        },
        {
          "internalType": "string",
          "name": "_name",
          "type": "string"
        },
        {
          "internalType": "uint256",
          "name": "_times",
          "type": "uint256"
        },
        {
          "internalType": "uint256",
          "name": "_amount",
          "type": "uint256"
        },
        {
          "internalType": "uint256",
          "name": "_publicExpense",
          "type": "uint256"
        }
      ],
      "name": "addExpense",
      "outputs": [],
      "stateMutability": "nonpayable",
      "type": "function"
    },
    {
      "inputs": [
        {
          "internalType": "uint256",
          "name": "_index",
          "type": "uint256"
        }
      ],
      "name": "getExpense",
      "outputs": [
        {
          "internalType": "string",
          "name": "item",
          "type": "string"
        },
        {
          "internalType": "string",
          "name": "date",
          "type": "string"
        },
        {
          "internalType": "string",
          "name": "name",
          "type": "string"
        },
        {
          "internalType": "uint256",
          "name": "times",
          "type": "uint256"
        },
        {
          "internalType": "uint256",
          "name": "amount",
          "type": "uint256"
        },
        {
          "internalType": "uint256",
          "name": "totalAmount",
          "type": "uint256"
        },
        {
          "internalType": "uint256",
          "name": "personalExpense",
          "type": "uint256"
        },
        {
          "internalType": "uint256",
          "name": "publicExpense",
          "type": "uint256"
        }
      ],
      "stateMutability": "view",
      "type": "function",
      "constant": true
    }
  ],
  "bytecode": "0x608060405234801561001057600080fd5b50610c31806100206000396000f3fe608060405234801561001057600080fd5b50600436106100415760003560e01c80635d138feb14610046578063735e5db614610062578063af4afe0a14610099575b600080fd5b610060600480360381019061005b9190610877565b6100d0565b005b61007c60048036038101906100779190610958565b6101ea565b604051610090989796959493929190610a1c565b60405180910390f35b6100b360048036038101906100ae9190610958565b610454565b6040516100c7989796959493929190610a1c565b60405180910390f35b600082846100de9190610ade565b9050600082826100ee9190610b38565b905060006040518061010001604052808a81526020018981526020018881526020018781526020018681526020018481526020018381526020018581525090806001815401808255809150506001900390600052602060002090600802016000909190919091506000820151816000019080519060200190610171929190610644565b50602082015181600101908051906020019061018e929190610644565b5060408201518160020190805190602001906101ab929190610644565b50606082015181600301556080820151816004015560a0820151816005015560c0820151816006015560e0820151816007015550505050505050505050565b606080606060008060008060008060008a8154811061020c5761020b610b6c565b5b90600052602060002090600802016040518061010001604052908160008201805461023690610bca565b80601f016020809104026020016040519081016040528092919081815260200182805461026290610bca565b80156102af5780601f10610284576101008083540402835291602001916102af565b820191906000526020600020905b81548152906001019060200180831161029257829003601f168201915b505050505081526020016001820180546102c890610bca565b80601f01602080910402602001604051908101604052809291908181526020018280546102f490610bca565b80156103415780601f1061031657610100808354040283529160200191610341565b820191906000526020600020905b81548152906001019060200180831161032457829003601f168201915b5050505050815260200160028201805461035a90610bca565b80601f016020809104026020016040519081016040528092919081815260200182805461038690610bca565b80156103d35780601f106103a8576101008083540402835291602001916103d3565b820191906000526020600020905b8154815290600101906020018083116103b657829003601f168201915b50505050508152602001600382015481526020016004820154815260200160058201548152602001600682015481526020016007820154815250509050806000015181602001518260400151836060015184608001518560a001518660c001518760e001519850985098509850985098509850985050919395975091939597565b6000818154811061046457600080fd5b906000526020600020906008020160009150905080600001805461048790610bca565b80601f01602080910402602001604051908101604052809291908181526020018280546104b390610bca565b80156105005780601f106104d557610100808354040283529160200191610500565b820191906000526020600020905b8154815290600101906020018083116104e357829003601f168201915b50505050509080600101805461051590610bca565b80601f016020809104026020016040519081016040528092919081815260200182805461054190610bca565b801561058e5780601f106105635761010080835404028352916020019161058e565b820191906000526020600020905b81548152906001019060200180831161057157829003601f168201915b5050505050908060020180546105a390610bca565b80601f01602080910402602001604051908101604052809291908181526020018280546105cf90610bca565b801561061c5780601f106105f15761010080835404028352916020019161061c565b820191906000526020600020905b8154815290600101906020018083116105ff57829003601f168201915b5050505050908060030154908060040154908060050154908060060154908060070154905088565b82805461065090610bca565b90600052602060002090601f01602090048101928261067257600085556106b9565b82601f1061068b57805160ff19168380011785556106b9565b828001600101855582156106b9579182015b828111156106b857825182559160200191906001019061069d565b5b5090506106c691906106ca565b5090565b5b808211156106e35760008160009055506001016106cb565b5090565b6000604051905090565b600080fd5b600080fd5b600080fd5b600080fd5b6000601f19601f8301169050919050565b7f4e487b7100000000000000000000000000000000000000000000000000000000600052604160045260246000fd5b61074e82610705565b810181811067ffffffffffffffff8211171561076d5761076c610716565b5b80604052505050565b60006107806106e7565b905061078c8282610745565b919050565b600067ffffffffffffffff8211156107ac576107ab610716565b5b6107b582610705565b9050602081019050919050565b82818337600083830152505050565b60006107e46107df84610791565b610776565b905082815260208101848484011115610800576107ff610700565b5b61080b8482856107c2565b509392505050565b600082601f830112610828576108276106fb565b5b81356108388482602086016107d1565b91505092915050565b6000819050919050565b61085481610841565b811461085f57600080fd5b50565b6000813590506108718161084b565b92915050565b60008060008060008060c08789031215610894576108936106f1565b5b600087013567ffffffffffffffff8111156108b2576108b16106f6565b5b6108be89828a01610813565b965050602087013567ffffffffffffffff8111156108df576108de6106f6565b5b6108eb89828a01610813565b955050604087013567ffffffffffffffff81111561090c5761090b6106f6565b5b61091889828a01610813565b945050606061092989828a01610862565b935050608061093a89828a01610862565b92505060a061094b89828a01610862565b9150509295509295509295565b60006020828403121561096e5761096d6106f1565b5b600061097c84828501610862565b91505092915050565b600081519050919050565b600082825260208201905092915050565b60005b838110156109bf5780820151818401526020810190506109a4565b838111156109ce576000848401525b50505050565b60006109df82610985565b6109e98185610990565b93506109f98185602086016109a1565b610a0281610705565b840191505092915050565b610a1681610841565b82525050565b6000610100820190508181036000830152610a37818b6109d4565b90508181036020830152610a4b818a6109d4565b90508181036040830152610a5f81896109d4565b9050610a6e6060830188610a0d565b610a7b6080830187610a0d565b610a8860a0830186610a0d565b610a9560c0830185610a0d565b610aa260e0830184610a0d565b9998505050505050505050565b7f4e487b7100000000000000000000000000000000000000000000000000000000600052601160045260246000fd5b6000610ae982610841565b9150610af483610841565b9250817fffffffffffffffffffffffffffffffffffffffffffffffffffffffffffffffff0483118215151615610b2d57610b2c610aaf565b5b828202905092915050565b6000610b4382610841565b9150610b4e83610841565b925082821015610b6157610b60610aaf565b5b828203905092915050565b7f4e487b7100000000000000000000000000000000000000000000000000000000600052603260045260246000fd5b7f4e487b7100000000000000000000000000000000000000000000000000000000600052602260045260246000fd5b60006002820490506001821680610be257607f821691505b602082108103610bf557610bf4610b9b565b5b5091905056fea2646970667358221220682f40996abf64bff7a0ea5ea633febe95b23bf570f4d9273207c9d586fe67d164736f6c634300080d0033",
  "immutableReferences": {},
  "source": "// SPDX-License-Identifier: GPL-3.0\r\n\r\npragma solidity ^0.8.0;\r\n\r\ncontract FundUsage {\r\n    \r\n    struct Expense {\r\n        string item; // \r\n        string date; // \r\n        string name; // \r\n        uint times; // \r\n        uint amount; //  \r\n        uint totalAmount; //  \r\n        uint personalExpense; // \r\n        uint publicExpense; // \r\n    }\r\n\r\n    Expense[] public expenses;\r\n\r\n    function addExpense(\r\n        string memory _item,\r\n        string memory _date,\r\n        string memory _name,\r\n        uint _times,\r\n        uint _amount,\r\n        uint _publicExpense\r\n    ) public {\r\n        uint _totalAmount = _times * _amount;\r\n        uint _personalExpense = _totalAmount - _publicExpense;\r\n        expenses.push(Expense(_item, _date, _name, _times, _amount, _totalAmount, _personalExpense, _publicExpense));\r\n    }\r\n\r\n    function getExpense(uint _index) public view returns (\r\n        string memory item,\r\n        string memory date,\r\n        string memory name,\r\n        uint times,\r\n        uint amount,\r\n        uint totalAmount,\r\n        uint personalExpense,\r\n        uint publicExpense\r\n    ) {\r\n        Expense memory e = expenses[_index];\r\n        return (e.item, e.date, e.name, e.times, e.amount, e.totalAmount, e.personalExpense, e.publicExpense);\r\n    }\r\n}",
  "sourcePath": "C:\\Users\\SSAFY\\Desktop\\ sub2\\S10P22C206\\smart-contracts\\contracts\\FundUsage.sol",
  "compiler": {
    "name": "solc",
    "version": "0.8.13+commit.abaa5c0e.Emscripten.clang"
  },
  "schemaVersion": "3.4.16",
  "updatedAt": "2024-03-27T04:58:45.004Z",
  "networkType": "ethereum",
  "devdoc": {
    "kind": "dev",
    "methods": {},
    "version": 1
  },
  "userdoc": {
    "kind": "user",
    "methods": {},
    "version": 1
  }
}