{
  "contractName": "FundRaising",
  "abi": [
    {
      "inputs": [
        {
          "internalType": "uint256",
          "name": "",
          "type": "uint256"
        },
        {
          "internalType": "uint256",
          "name": "",
          "type": "uint256"
        }
      ],
      "name": "fundingDonations",
      "outputs": [
        {
          "internalType": "string",
          "name": "donorName",
          "type": "string"
        },
        {
          "internalType": "uint256",
          "name": "date",
          "type": "uint256"
        },
        {
          "internalType": "uint256",
          "name": "amount",
          "type": "uint256"
        }
      ],
      "stateMutability": "view",
      "type": "function",
      "constant": true
    },
    {
      "inputs": [
        {
          "internalType": "uint256",
          "name": "",
          "type": "uint256"
        }
      ],
      "name": "fundings",
      "outputs": [
        {
          "internalType": "uint256",
          "name": "goalAmount",
          "type": "uint256"
        },
        {
          "internalType": "uint256",
          "name": "currentAmount",
          "type": "uint256"
        },
        {
          "internalType": "string",
          "name": "startTime",
          "type": "string"
        },
        {
          "internalType": "string",
          "name": "endTime",
          "type": "string"
        },
        {
          "internalType": "string",
          "name": "title",
          "type": "string"
        },
        {
          "internalType": "address",
          "name": "hospitalAddr",
          "type": "address"
        },
        {
          "internalType": "string",
          "name": "hospitalName",
          "type": "string"
        }
      ],
      "stateMutability": "view",
      "type": "function",
      "constant": true
    },
    {
      "inputs": [
        {
          "internalType": "uint256",
          "name": "_goalAmount",
          "type": "uint256"
        },
        {
          "internalType": "string",
          "name": "_startTime",
          "type": "string"
        },
        {
          "internalType": "string",
          "name": "_endTime",
          "type": "string"
        },
        {
          "internalType": "string",
          "name": "_title",
          "type": "string"
        },
        {
          "internalType": "address",
          "name": "_hospitalAddr",
          "type": "address"
        },
        {
          "internalType": "string",
          "name": "_hospitalName",
          "type": "string"
        }
      ],
      "name": "createFunding",
      "outputs": [],
      "stateMutability": "nonpayable",
      "type": "function"
    },
    {
      "inputs": [
        {
          "internalType": "uint256",
          "name": "index",
          "type": "uint256"
        },
        {
          "internalType": "string",
          "name": "donorName",
          "type": "string"
        },
        {
          "internalType": "uint256",
          "name": "date",
          "type": "uint256"
        },
        {
          "internalType": "uint256",
          "name": "amount",
          "type": "uint256"
        }
      ],
      "name": "addDonation",
      "outputs": [],
      "stateMutability": "nonpayable",
      "type": "function"
    },
    {
      "inputs": [
        {
          "internalType": "uint256",
          "name": "index",
          "type": "uint256"
        }
      ],
      "name": "getFunding",
      "outputs": [
        {
          "internalType": "uint256",
          "name": "",
          "type": "uint256"
        },
        {
          "internalType": "uint256",
          "name": "",
          "type": "uint256"
        },
        {
          "internalType": "string",
          "name": "",
          "type": "string"
        },
        {
          "internalType": "string",
          "name": "",
          "type": "string"
        },
        {
          "internalType": "string",
          "name": "",
          "type": "string"
        },
        {
          "internalType": "address",
          "name": "",
          "type": "address"
        },
        {
          "internalType": "string",
          "name": "",
          "type": "string"
        },
        {
          "components": [
            {
              "internalType": "string",
              "name": "donorName",
              "type": "string"
            },
            {
              "internalType": "uint256",
              "name": "date",
              "type": "uint256"
            },
            {
              "internalType": "uint256",
              "name": "amount",
              "type": "uint256"
            }
          ],
          "internalType": "struct FundRaising.Donation[]",
          "name": "",
          "type": "tuple[]"
        }
      ],
      "stateMutability": "view",
      "type": "function",
      "constant": true
    }
  ],
  "bytecode": "0x608060405234801561001057600080fd5b50611538806100206000396000f3fe608060405234801561001057600080fd5b50600436106100575760003560e01c80630eba77511461005c57806312eb1611146100785780631430aea8146100aa578063d13cb1fb146100c6578063ebed4bd4146100fc575b600080fd5b61007660048036038101906100719190610dbc565b610133565b005b610092600480360381019061008d9190610e3f565b61024e565b6040516100a193929190610f16565b60405180910390f35b6100c460048036038101906100bf9190610fb2565b61031d565b005b6100e060048036038101906100db91906110af565b61046b565b6040516100f397969594939291906110eb565b60405180910390f35b610116600480360381019061011191906110af565b6106fd565b60405161012a9897969594939291906112e1565b60405180910390f35b83600080549050811061017b576040517f08c379a0000000000000000000000000000000000000000000000000000000008152600401610172906113ce565b60405180910390fd5b600060405180606001604052808681526020018581526020018481525090506001600087815260200190815260200160002081908060018154018082558091505060019003906000526020600020906003020160009091909190915060008201518160000190805190602001906101f3929190610b89565b5060208201518160010155604082015181600201555050826000878154811061021f5761021e6113ee565b5b9060005260206000209060070201600101600082825461023f919061144c565b92505081905550505050505050565b6001602052816000526040600020818154811061026a57600080fd5b90600052602060002090600302016000915091505080600001805461028e906114d1565b80601f01602080910402602001604051908101604052809291908181526020018280546102ba906114d1565b80156103075780601f106102dc57610100808354040283529160200191610307565b820191906000526020600020905b8154815290600101906020018083116102ea57829003601f168201915b5050505050908060010154908060020154905083565b60006040518060e00160405280888152602001600081526020018781526020018681526020018581526020018473ffffffffffffffffffffffffffffffffffffffff168152602001838152509080600181540180825580915050600190039060005260206000209060070201600090919091909150600082015181600001556020820151816001015560408201518160020190805190602001906103c2929190610b89565b5060608201518160030190805190602001906103df929190610b89565b5060808201518160040190805190602001906103fc929190610b89565b5060a08201518160050160006101000a81548173ffffffffffffffffffffffffffffffffffffffff021916908373ffffffffffffffffffffffffffffffffffffffff16021790555060c0820151816006019080519060200190610460929190610b89565b505050505050505050565b6000818154811061047b57600080fd5b90600052602060002090600702016000915090508060000154908060010154908060020180546104aa906114d1565b80601f01602080910402602001604051908101604052809291908181526020018280546104d6906114d1565b80156105235780601f106104f857610100808354040283529160200191610523565b820191906000526020600020905b81548152906001019060200180831161050657829003601f168201915b505050505090806003018054610538906114d1565b80601f0160208091040260200160405190810160405280929190818152602001828054610564906114d1565b80156105b15780601f10610586576101008083540402835291602001916105b1565b820191906000526020600020905b81548152906001019060200180831161059457829003601f168201915b5050505050908060040180546105c6906114d1565b80601f01602080910402602001604051908101604052809291908181526020018280546105f2906114d1565b801561063f5780601f106106145761010080835404028352916020019161063f565b820191906000526020600020905b81548152906001019060200180831161062257829003601f168201915b5050505050908060050160009054906101000a900473ffffffffffffffffffffffffffffffffffffffff169080600601805461067a906114d1565b80601f01602080910402602001604051908101604052809291908181526020018280546106a6906114d1565b80156106f35780601f106106c8576101008083540402835291602001916106f3565b820191906000526020600020905b8154815290600101906020018083116106d657829003601f168201915b5050505050905087565b60008060608060606000606080886000805490508110610752576040517f08c379a0000000000000000000000000000000000000000000000000000000008152600401610749906113ce565b60405180910390fd5b6000808b81548110610767576107666113ee565b5b90600052602060002090600702016040518060e001604052908160008201548152602001600182015481526020016002820180546107a4906114d1565b80601f01602080910402602001604051908101604052809291908181526020018280546107d0906114d1565b801561081d5780601f106107f25761010080835404028352916020019161081d565b820191906000526020600020905b81548152906001019060200180831161080057829003601f168201915b50505050508152602001600382018054610836906114d1565b80601f0160208091040260200160405190810160405280929190818152602001828054610862906114d1565b80156108af5780601f10610884576101008083540402835291602001916108af565b820191906000526020600020905b81548152906001019060200180831161089257829003601f168201915b505050505081526020016004820180546108c8906114d1565b80601f01602080910402602001604051908101604052809291908181526020018280546108f4906114d1565b80156109415780601f1061091657610100808354040283529160200191610941565b820191906000526020600020905b81548152906001019060200180831161092457829003601f168201915b505050505081526020016005820160009054906101000a900473ffffffffffffffffffffffffffffffffffffffff1673ffffffffffffffffffffffffffffffffffffffff1673ffffffffffffffffffffffffffffffffffffffff1681526020016006820180546109b0906114d1565b80601f01602080910402602001604051908101604052809291908181526020018280546109dc906114d1565b8015610a295780601f106109fe57610100808354040283529160200191610a29565b820191906000526020600020905b815481529060010190602001808311610a0c57829003601f168201915b50505050508152505090506000600160008d8152602001908152602001600020805480602002602001604051908101604052809291908181526020016000905b82821015610b415783829060005260206000209060030201604051806060016040529081600082018054610a9c906114d1565b80601f0160208091040260200160405190810160405280929190818152602001828054610ac8906114d1565b8015610b155780601f10610aea57610100808354040283529160200191610b15565b820191906000526020600020905b815481529060010190602001808311610af857829003601f168201915b505050505081526020016001820154815260200160028201548152505081526020019060010190610a69565b505050509050816000015182602001518360400151846060015185608001518660a001518760c00151879a509a509a509a509a509a509a509a50505050919395975091939597565b828054610b95906114d1565b90600052602060002090601f016020900481019282610bb75760008555610bfe565b82601f10610bd057805160ff1916838001178555610bfe565b82800160010185558215610bfe579182015b82811115610bfd578251825591602001919060010190610be2565b5b509050610c0b9190610c0f565b5090565b5b80821115610c28576000816000905550600101610c10565b5090565b6000604051905090565b600080fd5b600080fd5b6000819050919050565b610c5381610c40565b8114610c5e57600080fd5b50565b600081359050610c7081610c4a565b92915050565b600080fd5b600080fd5b6000601f19601f8301169050919050565b7f4e487b7100000000000000000000000000000000000000000000000000000000600052604160045260246000fd5b610cc982610c80565b810181811067ffffffffffffffff82111715610ce857610ce7610c91565b5b80604052505050565b6000610cfb610c2c565b9050610d078282610cc0565b919050565b600067ffffffffffffffff821115610d2757610d26610c91565b5b610d3082610c80565b9050602081019050919050565b82818337600083830152505050565b6000610d5f610d5a84610d0c565b610cf1565b905082815260208101848484011115610d7b57610d7a610c7b565b5b610d86848285610d3d565b509392505050565b600082601f830112610da357610da2610c76565b5b8135610db3848260208601610d4c565b91505092915050565b60008060008060808587031215610dd657610dd5610c36565b5b6000610de487828801610c61565b945050602085013567ffffffffffffffff811115610e0557610e04610c3b565b5b610e1187828801610d8e565b9350506040610e2287828801610c61565b9250506060610e3387828801610c61565b91505092959194509250565b60008060408385031215610e5657610e55610c36565b5b6000610e6485828601610c61565b9250506020610e7585828601610c61565b9150509250929050565b600081519050919050565b600082825260208201905092915050565b60005b83811015610eb9578082015181840152602081019050610e9e565b83811115610ec8576000848401525b50505050565b6000610ed982610e7f565b610ee38185610e8a565b9350610ef3818560208601610e9b565b610efc81610c80565b840191505092915050565b610f1081610c40565b82525050565b60006060820190508181036000830152610f308186610ece565b9050610f3f6020830185610f07565b610f4c6040830184610f07565b949350505050565b600073ffffffffffffffffffffffffffffffffffffffff82169050919050565b6000610f7f82610f54565b9050919050565b610f8f81610f74565b8114610f9a57600080fd5b50565b600081359050610fac81610f86565b92915050565b60008060008060008060c08789031215610fcf57610fce610c36565b5b6000610fdd89828a01610c61565b965050602087013567ffffffffffffffff811115610ffe57610ffd610c3b565b5b61100a89828a01610d8e565b955050604087013567ffffffffffffffff81111561102b5761102a610c3b565b5b61103789828a01610d8e565b945050606087013567ffffffffffffffff81111561105857611057610c3b565b5b61106489828a01610d8e565b935050608061107589828a01610f9d565b92505060a087013567ffffffffffffffff81111561109657611095610c3b565b5b6110a289828a01610d8e565b9150509295509295509295565b6000602082840312156110c5576110c4610c36565b5b60006110d384828501610c61565b91505092915050565b6110e581610f74565b82525050565b600060e082019050611100600083018a610f07565b61110d6020830189610f07565b818103604083015261111f8188610ece565b905081810360608301526111338187610ece565b905081810360808301526111478186610ece565b905061115660a08301856110dc565b81810360c08301526111688184610ece565b905098975050505050505050565b600081519050919050565b600082825260208201905092915050565b6000819050602082019050919050565b600082825260208201905092915050565b60006111be82610e7f565b6111c881856111a2565b93506111d8818560208601610e9b565b6111e181610c80565b840191505092915050565b6111f581610c40565b82525050565b6000606083016000830151848203600086015261121882826111b3565b915050602083015161122d60208601826111ec565b50604083015161124060408601826111ec565b508091505092915050565b600061125783836111fb565b905092915050565b6000602082019050919050565b600061127782611176565b6112818185611181565b93508360208202850161129385611192565b8060005b858110156112cf57848403895281516112b0858261124b565b94506112bb8361125f565b925060208a01995050600181019050611297565b50829750879550505050505092915050565b6000610100820190506112f7600083018b610f07565b611304602083018a610f07565b81810360408301526113168189610ece565b9050818103606083015261132a8188610ece565b9050818103608083015261133e8187610ece565b905061134d60a08301866110dc565b81810360c083015261135f8185610ece565b905081810360e0830152611373818461126c565b90509998505050505050505050565b7f496e76616c696420696e64657800000000000000000000000000000000000000600082015250565b60006113b8600d83610e8a565b91506113c382611382565b602082019050919050565b600060208201905081810360008301526113e7816113ab565b9050919050565b7f4e487b7100000000000000000000000000000000000000000000000000000000600052603260045260246000fd5b7f4e487b7100000000000000000000000000000000000000000000000000000000600052601160045260246000fd5b600061145782610c40565b915061146283610c40565b9250827fffffffffffffffffffffffffffffffffffffffffffffffffffffffffffffffff038211156114975761149661141d565b5b828201905092915050565b7f4e487b7100000000000000000000000000000000000000000000000000000000600052602260045260246000fd5b600060028204905060018216806114e957607f821691505b6020821081036114fc576114fb6114a2565b5b5091905056fea2646970667358221220e7a9759975b977934a5496659e0290be7b3d152d8516d592bdb35ffc643a167a64736f6c634300080d0033",
  "immutableReferences": {},
  "source": "// SPDX-License-Identifier: GPL-3.0\r\npragma solidity ^0.8.0;\r\n\r\ncontract FundRaising {\r\n\r\n    // Donation  \r\n    struct Donation {\r\n        string donorName; //  \r\n        uint date; //   (Unix )\r\n        uint amount; //  \r\n    }\r\n\r\n    // Funding  \r\n    struct Funding {\r\n        uint goalAmount; //   \r\n        uint currentAmount; //  \r\n        string startTime; //   (Unix )\r\n        string endTime; //   (Unix )\r\n        string title; //  \r\n        address hospitalAddr; //     \r\n        string hospitalName; //  \r\n    }\r\n\r\n    // Funding \r\n    Funding[] public fundings;\r\n\r\n    //  Funding  Donation   \r\n    mapping(uint => Donation[]) public fundingDonations;\r\n\r\n    // index   modifier\r\n    modifier validIndex(uint index) {\r\n        require(index < fundings.length, \"Invalid index\");\r\n        _;\r\n    }\r\n\r\n    // Funding   \r\n    function createFunding(uint _goalAmount, string memory _startTime, string memory _endTime, string memory _title, address _hospitalAddr, string memory _hospitalName) public {\r\n        fundings.push(Funding(_goalAmount, 0, _startTime, _endTime, _title, _hospitalAddr, _hospitalName));\r\n    }\r\n\r\n    //   \r\n    function addDonation(uint index, string memory donorName, uint date, uint amount) public validIndex(index) {\r\n\r\n        //     \r\n        Donation memory newDonation = Donation(donorName, date, amount);\r\n        fundingDonations[index].push(newDonation);\r\n\r\n        //    \r\n        fundings[index].currentAmount += amount;\r\n    }\r\n\r\n    // Funding   (+  )\r\n    function getFunding(uint index) public view validIndex(index) returns (uint, uint, string memory, string memory, string memory, address, string memory, Donation[] memory) {\r\n        Funding memory funding = fundings[index];\r\n        Donation[] memory donations = fundingDonations[index];\r\n        return (funding.goalAmount, funding.currentAmount, funding.startTime, funding.endTime, funding.title, funding.hospitalAddr, funding.hospitalName, donations);\r\n    }\r\n}\r\n",
  "sourcePath": "C:\\Users\\SSAFY\\Desktop\\ sub2\\S10P22C206\\smart-contracts\\contracts\\FundRaising.sol",
  "compiler": {
    "name": "solc",
    "version": "0.8.13+commit.abaa5c0e.Emscripten.clang"
  },
  "schemaVersion": "3.4.16",
  "updatedAt": "2024-03-27T04:58:44.998Z",
  "networkType": "ethereum",
  "devdoc": {
    "kind": "dev",
    "methods": {},
    "version": 1
  },
  "userdoc": {
    "kind": "user",
    "methods": {},
    "version": 1
  }
}