{
  "contractName": "FundUsage",
  "abi": [
    {
      "inputs": [
        {
          "internalType": "uint256",
          "name": "",
          "type": "uint256"
        }
      ],
      "name": "expenses",
      "outputs": [
        {
          "internalType": "string",
          "name": "item",
          "type": "string"
        },
        {
          "internalType": "string",
          "name": "date",
          "type": "string"
        },
        {
          "internalType": "string",
          "name": "name",
          "type": "string"
        },
        {
          "internalType": "uint256",
          "name": "times",
          "type": "uint256"
        },
        {
          "internalType": "uint256",
          "name": "amount",
          "type": "uint256"
        }
      ],
      "stateMutability": "view",
      "type": "function",
      "constant": true
    },
    {
      "inputs": [
        {
          "internalType": "uint256",
          "name": "",
          "type": "uint256"
        },
        {
          "internalType": "uint256",
          "name": "",
          "type": "uint256"
        }
      ],
      "name": "expensesList",
      "outputs": [
        {
          "internalType": "string",
          "name": "item",
          "type": "string"
        },
        {
          "internalType": "string",
          "name": "date",
          "type": "string"
        },
        {
          "internalType": "string",
          "name": "name",
          "type": "string"
        },
        {
          "internalType": "uint256",
          "name": "times",
          "type": "uint256"
        },
        {
          "internalType": "uint256",
          "name": "amount",
          "type": "uint256"
        }
      ],
      "stateMutability": "view",
      "type": "function",
      "constant": true
    },
    {
      "inputs": [
        {
          "components": [
            {
              "internalType": "string",
              "name": "item",
              "type": "string"
            },
            {
              "internalType": "string",
              "name": "date",
              "type": "string"
            },
            {
              "internalType": "string",
              "name": "name",
              "type": "string"
            },
            {
              "internalType": "uint256",
              "name": "times",
              "type": "uint256"
            },
            {
              "internalType": "uint256",
              "name": "amount",
              "type": "uint256"
            }
          ],
          "internalType": "struct FundUsage.Expense[]",
          "name": "newExpenses",
          "type": "tuple[]"
        }
      ],
      "name": "addExpense",
      "outputs": [],
      "stateMutability": "nonpayable",
      "type": "function"
    },
    {
      "inputs": [],
      "name": "getExpenses",
      "outputs": [
        {
          "components": [
            {
              "internalType": "string",
              "name": "item",
              "type": "string"
            },
            {
              "internalType": "string",
              "name": "date",
              "type": "string"
            },
            {
              "internalType": "string",
              "name": "name",
              "type": "string"
            },
            {
              "internalType": "uint256",
              "name": "times",
              "type": "uint256"
            },
            {
              "internalType": "uint256",
              "name": "amount",
              "type": "uint256"
            }
          ],
          "internalType": "struct FundUsage.Expense[]",
          "name": "",
          "type": "tuple[]"
        }
      ],
      "stateMutability": "view",
      "type": "function",
      "constant": true
    },
    {
      "inputs": [],
      "name": "getExpenseList",
      "outputs": [
        {
          "components": [
            {
              "internalType": "string",
              "name": "item",
              "type": "string"
            },
            {
              "internalType": "string",
              "name": "date",
              "type": "string"
            },
            {
              "internalType": "string",
              "name": "name",
              "type": "string"
            },
            {
              "internalType": "uint256",
              "name": "times",
              "type": "uint256"
            },
            {
              "internalType": "uint256",
              "name": "amount",
              "type": "uint256"
            }
          ],
          "internalType": "struct FundUsage.Expense[][]",
          "name": "",
          "type": "tuple[][]"
        }
      ],
      "stateMutability": "view",
      "type": "function",
      "constant": true
    }
  ],
  "bytecode": "0x608060405234801561001057600080fd5b506116d8806100206000396000f3fe608060405234801561001057600080fd5b50600436106100575760003560e01c8063183d67351461005c5780631a89b4541461007a57806383a36a91146100ae5780639df414a1146100cc578063af4afe0a146100e8575b600080fd5b61006461011c565b6040516100719190611016565b60405180910390f35b610094600480360381019061008f9190611078565b61038c565b6040516100a5959493929190611111565b60405180910390f35b6100b6610583565b6040516100c391906111ff565b60405180910390f35b6100e660048036038101906100e19190611526565b6107ac565b005b61010260048036038101906100fd919061156f565b6108c7565b604051610113959493929190611111565b60405180910390f35b60606001805480602002602001604051908101604052809291908181526020016000905b8282101561038357838290600052602060002001805480602002602001604051908101604052809291908181526020016000905b8282101561037057838290600052602060002090600502016040518060a00160405290816000820180546101a7906115cb565b80601f01602080910402602001604051908101604052809291908181526020018280546101d3906115cb565b80156102205780601f106101f557610100808354040283529160200191610220565b820191906000526020600020905b81548152906001019060200180831161020357829003601f168201915b50505050508152602001600182018054610239906115cb565b80601f0160208091040260200160405190810160405280929190818152602001828054610265906115cb565b80156102b25780601f10610287576101008083540402835291602001916102b2565b820191906000526020600020905b81548152906001019060200180831161029557829003601f168201915b505050505081526020016002820180546102cb906115cb565b80601f01602080910402602001604051908101604052809291908181526020018280546102f7906115cb565b80156103445780601f1061031957610100808354040283529160200191610344565b820191906000526020600020905b81548152906001019060200180831161032757829003601f168201915b505050505081526020016003820154815260200160048201548152505081526020019060010190610174565b5050505081526020019060010190610140565b50505050905090565b6001828154811061039c57600080fd5b9060005260206000200181815481106103b457600080fd5b9060005260206000209060050201600091509150508060000180546103d8906115cb565b80601f0160208091040260200160405190810160405280929190818152602001828054610404906115cb565b80156104515780601f1061042657610100808354040283529160200191610451565b820191906000526020600020905b81548152906001019060200180831161043457829003601f168201915b505050505090806001018054610466906115cb565b80601f0160208091040260200160405190810160405280929190818152602001828054610492906115cb565b80156104df5780601f106104b4576101008083540402835291602001916104df565b820191906000526020600020905b8154815290600101906020018083116104c257829003601f168201915b5050505050908060020180546104f4906115cb565b80601f0160208091040260200160405190810160405280929190818152602001828054610520906115cb565b801561056d5780601f106105425761010080835404028352916020019161056d565b820191906000526020600020905b81548152906001019060200180831161055057829003601f168201915b5050505050908060030154908060040154905085565b60606000805480602002602001604051908101604052809291908181526020016000905b828210156107a357838290600052602060002090600502016040518060a00160405290816000820180546105da906115cb565b80601f0160208091040260200160405190810160405280929190818152602001828054610606906115cb565b80156106535780601f1061062857610100808354040283529160200191610653565b820191906000526020600020905b81548152906001019060200180831161063657829003601f168201915b5050505050815260200160018201805461066c906115cb565b80601f0160208091040260200160405190810160405280929190818152602001828054610698906115cb565b80156106e55780601f106106ba576101008083540402835291602001916106e5565b820191906000526020600020905b8154815290600101906020018083116106c857829003601f168201915b505050505081526020016002820180546106fe906115cb565b80601f016020809104026020016040519081016040528092919081815260200182805461072a906115cb565b80156107775780601f1061074c57610100808354040283529160200191610777565b820191906000526020600020905b81548152906001019060200180831161075a57829003601f168201915b5050505050815260200160038201548152602001600482015481525050815260200190600101906105a7565b50505050905090565b60005b815181101561087e5760008282815181106107cd576107cc6115fc565b5b60200260200101519080600181540180825580915050600190039060005260206000209060050201600090919091909150600082015181600001908051906020019061081a929190610aa5565b506020820151816001019080519060200190610837929190610aa5565b506040820151816002019080519060200190610854929190610aa5565b506060820151816003015560808201518160040155505080806108769061165a565b9150506107af565b5060016000908060018154018082558091505060019003906000526020600020016000909190919091509080546108b6929190610b2b565b506000806108c49190610bf7565b50565b600081815481106108d757600080fd5b90600052602060002090600502016000915090508060000180546108fa906115cb565b80601f0160208091040260200160405190810160405280929190818152602001828054610926906115cb565b80156109735780601f1061094857610100808354040283529160200191610973565b820191906000526020600020905b81548152906001019060200180831161095657829003601f168201915b505050505090806001018054610988906115cb565b80601f01602080910402602001604051908101604052809291908181526020018280546109b4906115cb565b8015610a015780601f106109d657610100808354040283529160200191610a01565b820191906000526020600020905b8154815290600101906020018083116109e457829003601f168201915b505050505090806002018054610a16906115cb565b80601f0160208091040260200160405190810160405280929190818152602001828054610a42906115cb565b8015610a8f5780601f10610a6457610100808354040283529160200191610a8f565b820191906000526020600020905b815481529060010190602001808311610a7257829003601f168201915b5050505050908060030154908060040154905085565b828054610ab1906115cb565b90600052602060002090601f016020900481019282610ad35760008555610b1a565b82601f10610aec57805160ff1916838001178555610b1a565b82800160010185558215610b1a579182015b82811115610b19578251825591602001919060010190610afe565b5b509050610b279190610c1b565b5090565b828054828255906000526020600020906005028101928215610be65760005260206000209160050282015b82811115610be55782826000820181600001908054610b74906115cb565b610b7f929190610c38565b506001820181600101908054610b94906115cb565b610b9f929190610c38565b506002820181600201908054610bb4906115cb565b610bbf929190610c38565b506003820154816003015560048201548160040155505091600501919060050190610b56565b5b509050610bf39190610cc5565b5090565b5080546000825560050290600052602060002090810190610c189190610cc5565b50565b5b80821115610c34576000816000905550600101610c1c565b5090565b828054610c44906115cb565b90600052602060002090601f016020900481019282610c665760008555610cb4565b82601f10610c775780548555610cb4565b82800160010185558215610cb457600052602060002091601f016020900482015b82811115610cb3578254825591600101919060010190610c98565b5b509050610cc19190610c1b565b5090565b5b80821115610d185760008082016000610cdf9190610d1c565b600182016000610cef9190610d1c565b600282016000610cff9190610d1c565b6003820160009055600482016000905550600501610cc6565b5090565b508054610d28906115cb565b6000825580601f10610d3a5750610d59565b601f016020900490600052602060002090810190610d589190610c1b565b5b50565b600081519050919050565b600082825260208201905092915050565b6000819050602082019050919050565b600081519050919050565b600082825260208201905092915050565b6000819050602082019050919050565b600081519050919050565b600082825260208201905092915050565b60005b83811015610dee578082015181840152602081019050610dd3565b83811115610dfd576000848401525b50505050565b6000601f19601f8301169050919050565b6000610e1f82610db4565b610e298185610dbf565b9350610e39818560208601610dd0565b610e4281610e03565b840191505092915050565b6000819050919050565b610e6081610e4d565b82525050565b600060a0830160008301518482036000860152610e838282610e14565b91505060208301518482036020860152610e9d8282610e14565b91505060408301518482036040860152610eb78282610e14565b9150506060830151610ecc6060860182610e57565b506080830151610edf6080860182610e57565b508091505092915050565b6000610ef68383610e66565b905092915050565b6000602082019050919050565b6000610f1682610d88565b610f208185610d93565b935083602082028501610f3285610da4565b8060005b85811015610f6e5784840389528151610f4f8582610eea565b9450610f5a83610efe565b925060208a01995050600181019050610f36565b50829750879550505050505092915050565b6000610f8c8383610f0b565b905092915050565b6000602082019050919050565b6000610fac82610d5c565b610fb68185610d67565b935083602082028501610fc885610d78565b8060005b858110156110045784840389528151610fe58582610f80565b9450610ff083610f94565b925060208a01995050600181019050610fcc565b50829750879550505050505092915050565b600060208201905081810360008301526110308184610fa1565b905092915050565b6000604051905090565b600080fd5b600080fd5b61105581610e4d565b811461106057600080fd5b50565b6000813590506110728161104c565b92915050565b6000806040838503121561108f5761108e611042565b5b600061109d85828601611063565b92505060206110ae85828601611063565b9150509250929050565b600082825260208201905092915050565b60006110d482610db4565b6110de81856110b8565b93506110ee818560208601610dd0565b6110f781610e03565b840191505092915050565b61110b81610e4d565b82525050565b600060a082019050818103600083015261112b81886110c9565b9050818103602083015261113f81876110c9565b9050818103604083015261115381866110c9565b90506111626060830185611102565b61116f6080830184611102565b9695505050505050565b600082825260208201905092915050565b600061119582610d88565b61119f8185611179565b9350836020820285016111b185610da4565b8060005b858110156111ed57848403895281516111ce8582610eea565b94506111d983610efe565b925060208a019950506001810190506111b5565b50829750879550505050505092915050565b60006020820190508181036000830152611219818461118a565b905092915050565b600080fd5b7f4e487b7100000000000000000000000000000000000000000000000000000000600052604160045260246000fd5b61125e82610e03565b810181811067ffffffffffffffff8211171561127d5761127c611226565b5b80604052505050565b6000611290611038565b905061129c8282611255565b919050565b600067ffffffffffffffff8211156112bc576112bb611226565b5b602082029050602081019050919050565b600080fd5b600080fd5b600080fd5b600080fd5b600067ffffffffffffffff8211156112fc576112fb611226565b5b61130582610e03565b9050602081019050919050565b82818337600083830152505050565b600061133461132f846112e1565b611286565b9050828152602081018484840111156113505761134f6112dc565b5b61135b848285611312565b509392505050565b600082601f83011261137857611377611221565b5b8135611388848260208601611321565b91505092915050565b600060a082840312156113a7576113a66112d2565b5b6113b160a0611286565b9050600082013567ffffffffffffffff8111156113d1576113d06112d7565b5b6113dd84828501611363565b600083015250602082013567ffffffffffffffff811115611401576114006112d7565b5b61140d84828501611363565b602083015250604082013567ffffffffffffffff811115611431576114306112d7565b5b61143d84828501611363565b604083015250606061145184828501611063565b606083015250608061146584828501611063565b60808301525092915050565b600061148461147f846112a1565b611286565b905080838252602082019050602084028301858111156114a7576114a66112cd565b5b835b818110156114ee57803567ffffffffffffffff8111156114cc576114cb611221565b5b8086016114d98982611391565b855260208501945050506020810190506114a9565b5050509392505050565b600082601f83011261150d5761150c611221565b5b813561151d848260208601611471565b91505092915050565b60006020828403121561153c5761153b611042565b5b600082013567ffffffffffffffff81111561155a57611559611047565b5b611566848285016114f8565b91505092915050565b60006020828403121561158557611584611042565b5b600061159384828501611063565b91505092915050565b7f4e487b7100000000000000000000000000000000000000000000000000000000600052602260045260246000fd5b600060028204905060018216806115e357607f821691505b6020821081036115f6576115f561159c565b5b50919050565b7f4e487b7100000000000000000000000000000000000000000000000000000000600052603260045260246000fd5b7f4e487b7100000000000000000000000000000000000000000000000000000000600052601160045260246000fd5b600061166582610e4d565b91507fffffffffffffffffffffffffffffffffffffffffffffffffffffffffffffffff82036116975761169661162b565b5b60018201905091905056fea2646970667358221220f032009c9747768cf3c51b3cdc36d6b7998803a6bf6cf3c622535a3333b12b6b64736f6c634300080d0033",
  "immutableReferences": {},
  "source": "// SPDX-License-Identifier: GPL-3.0\r\n\r\npragma solidity >=0.7.0 <0.9.0;\r\n\r\ncontract FundUsage {\r\n\r\n    struct Expense {\r\n        string item; // \r\n        string date; // \r\n        string name; // \r\n        uint times; // \r\n        uint amount; //  \r\n    }\r\n\r\n    Expense[] public expenses;\r\n    Expense[][] public expensesList;\r\n\r\n    function addExpense(Expense[] memory newExpenses) public {\r\n        for (uint i = 0; i < newExpenses.length; i++) {\r\n            expenses.push(newExpenses[i]);\r\n        }\r\n        expensesList.push(expenses);\r\n        delete expenses; // expenses  .\r\n    }\r\n\r\n    function getExpenses() public view returns (Expense[] memory) {\r\n        return expenses;\r\n    }\r\n\r\n    function getExpenseList() public view returns (Expense[][] memory) {\r\n        return expensesList;\r\n    }\r\n}",
  "sourcePath": "C:\\Users\\SSAFY\\Desktop\\ sub2\\S10P22C206\\smart-contracts\\contracts\\FundUsage.sol",
  "compiler": {
    "name": "solc",
    "version": "0.8.13+commit.abaa5c0e.Emscripten.clang"
  },
  "schemaVersion": "3.4.16",
  "updatedAt": "2024-04-01T12:38:05.193Z",
  "networkType": "ethereum",
  "devdoc": {
    "kind": "dev",
    "methods": {},
    "version": 1
  },
  "userdoc": {
    "kind": "user",
    "methods": {},
    "version": 1
  }
}