{
  "contractName": "FundRaising",
  "abi": [
    {
      "inputs": [
        {
          "internalType": "uint256",
          "name": "",
          "type": "uint256"
        },
        {
          "internalType": "uint256",
          "name": "",
          "type": "uint256"
        }
      ],
      "name": "fundingDonations",
      "outputs": [
        {
          "internalType": "string",
          "name": "donorName",
          "type": "string"
        },
        {
          "internalType": "uint256",
          "name": "date",
          "type": "uint256"
        },
        {
          "internalType": "uint256",
          "name": "amount",
          "type": "uint256"
        }
      ],
      "stateMutability": "view",
      "type": "function",
      "constant": true
    },
    {
      "inputs": [
        {
          "internalType": "uint256",
          "name": "",
          "type": "uint256"
        }
      ],
      "name": "fundings",
      "outputs": [
        {
          "internalType": "uint256",
          "name": "goalAmount",
          "type": "uint256"
        },
        {
          "internalType": "uint256",
          "name": "currentAmount",
          "type": "uint256"
        },
        {
          "internalType": "string",
          "name": "startTime",
          "type": "string"
        },
        {
          "internalType": "string",
          "name": "endTime",
          "type": "string"
        },
        {
          "internalType": "string",
          "name": "title",
          "type": "string"
        },
        {
          "internalType": "address",
          "name": "hospitalAddr",
          "type": "address"
        },
        {
          "internalType": "string",
          "name": "hospitalName",
          "type": "string"
        }
      ],
      "stateMutability": "view",
      "type": "function",
      "constant": true
    },
    {
      "inputs": [
        {
          "internalType": "uint256",
          "name": "_goalAmount",
          "type": "uint256"
        },
        {
          "internalType": "string",
          "name": "_startTime",
          "type": "string"
        },
        {
          "internalType": "string",
          "name": "_endTime",
          "type": "string"
        },
        {
          "internalType": "string",
          "name": "_title",
          "type": "string"
        },
        {
          "internalType": "address",
          "name": "_hospitalAddr",
          "type": "address"
        },
        {
          "internalType": "string",
          "name": "_hospitalName",
          "type": "string"
        }
      ],
      "name": "createFunding",
      "outputs": [],
      "stateMutability": "nonpayable",
      "type": "function"
    },
    {
      "inputs": [
        {
          "internalType": "uint256",
          "name": "index",
          "type": "uint256"
        },
        {
          "internalType": "string",
          "name": "donorName",
          "type": "string"
        },
        {
          "internalType": "uint256",
          "name": "date",
          "type": "uint256"
        },
        {
          "internalType": "uint256",
          "name": "amount",
          "type": "uint256"
        }
      ],
      "name": "addDonation",
      "outputs": [],
      "stateMutability": "nonpayable",
      "type": "function"
    },
    {
      "inputs": [
        {
          "internalType": "uint256",
          "name": "index",
          "type": "uint256"
        }
      ],
      "name": "getFunding",
      "outputs": [
        {
          "internalType": "uint256",
          "name": "",
          "type": "uint256"
        },
        {
          "internalType": "uint256",
          "name": "",
          "type": "uint256"
        },
        {
          "internalType": "string",
          "name": "",
          "type": "string"
        },
        {
          "internalType": "string",
          "name": "",
          "type": "string"
        },
        {
          "internalType": "string",
          "name": "",
          "type": "string"
        },
        {
          "internalType": "address",
          "name": "",
          "type": "address"
        },
        {
          "internalType": "string",
          "name": "",
          "type": "string"
        },
        {
          "components": [
            {
              "internalType": "string",
              "name": "donorName",
              "type": "string"
            },
            {
              "internalType": "uint256",
              "name": "date",
              "type": "uint256"
            },
            {
              "internalType": "uint256",
              "name": "amount",
              "type": "uint256"
            }
          ],
          "internalType": "struct FundRaising.Donation[]",
          "name": "",
          "type": "tuple[]"
        }
      ],
      "stateMutability": "view",
      "type": "function",
      "constant": true
    },
    {
      "inputs": [],
      "name": "getAllFundings",
      "outputs": [
        {
          "components": [
            {
              "internalType": "uint256",
              "name": "goalAmount",
              "type": "uint256"
            },
            {
              "internalType": "uint256",
              "name": "currentAmount",
              "type": "uint256"
            },
            {
              "internalType": "string",
              "name": "startTime",
              "type": "string"
            },
            {
              "internalType": "string",
              "name": "endTime",
              "type": "string"
            },
            {
              "internalType": "string",
              "name": "title",
              "type": "string"
            },
            {
              "internalType": "address",
              "name": "hospitalAddr",
              "type": "address"
            },
            {
              "internalType": "string",
              "name": "hospitalName",
              "type": "string"
            }
          ],
          "internalType": "struct FundRaising.Funding[]",
          "name": "",
          "type": "tuple[]"
        }
      ],
      "stateMutability": "view",
      "type": "function",
      "constant": true
    }
  ],
  "bytecode": "0x608060405234801561001057600080fd5b50611a16806100206000396000f3fe608060405234801561001057600080fd5b50600436106100625760003560e01c80630eba77511461006757806312eb1611146100835780631430aea8146100b557806372a3143c146100d1578063d13cb1fb146100ef578063ebed4bd414610125575b600080fd5b610081600480360381019061007c91906110f6565b61015c565b005b61009d60048036038101906100989190611179565b610277565b6040516100ac93929190611250565b60405180910390f35b6100cf60048036038101906100ca91906112ec565b610346565b005b6100d9610494565b6040516100e691906115c4565b60405180910390f35b610109600480360381019061010491906115e6565b6107a5565b60405161011c9796959493929190611622565b60405180910390f35b61013f600480360381019061013a91906115e6565b610a37565b6040516101539897969594939291906117bf565b60405180910390f35b8360008054905081106101a4576040517f08c379a000000000000000000000000000000000000000000000000000000000815260040161019b906118ac565b60405180910390fd5b6000604051806060016040528086815260200185815260200184815250905060016000878152602001908152602001600020819080600181540180825580915050600190039060005260206000209060030201600090919091909150600082015181600001908051906020019061021c929190610ec3565b50602082015181600101556040820151816002015550508260008781548110610248576102476118cc565b5b90600052602060002090600702016001016000828254610268919061192a565b92505081905550505050505050565b6001602052816000526040600020818154811061029357600080fd5b9060005260206000209060030201600091509150508060000180546102b7906119af565b80601f01602080910402602001604051908101604052809291908181526020018280546102e3906119af565b80156103305780601f1061030557610100808354040283529160200191610330565b820191906000526020600020905b81548152906001019060200180831161031357829003601f168201915b5050505050908060010154908060020154905083565b60006040518060e00160405280888152602001600081526020018781526020018681526020018581526020018473ffffffffffffffffffffffffffffffffffffffff168152602001838152509080600181540180825580915050600190039060005260206000209060070201600090919091909150600082015181600001556020820151816001015560408201518160020190805190602001906103eb929190610ec3565b506060820151816003019080519060200190610408929190610ec3565b506080820151816004019080519060200190610425929190610ec3565b5060a08201518160050160006101000a81548173ffffffffffffffffffffffffffffffffffffffff021916908373ffffffffffffffffffffffffffffffffffffffff16021790555060c0820151816006019080519060200190610489929190610ec3565b505050505050505050565b60606000805480602002602001604051908101604052809291908181526020016000905b8282101561079c57838290600052602060002090600702016040518060e001604052908160008201548152602001600182015481526020016002820180546104ff906119af565b80601f016020809104026020016040519081016040528092919081815260200182805461052b906119af565b80156105785780601f1061054d57610100808354040283529160200191610578565b820191906000526020600020905b81548152906001019060200180831161055b57829003601f168201915b50505050508152602001600382018054610591906119af565b80601f01602080910402602001604051908101604052809291908181526020018280546105bd906119af565b801561060a5780601f106105df5761010080835404028352916020019161060a565b820191906000526020600020905b8154815290600101906020018083116105ed57829003601f168201915b50505050508152602001600482018054610623906119af565b80601f016020809104026020016040519081016040528092919081815260200182805461064f906119af565b801561069c5780601f106106715761010080835404028352916020019161069c565b820191906000526020600020905b81548152906001019060200180831161067f57829003601f168201915b505050505081526020016005820160009054906101000a900473ffffffffffffffffffffffffffffffffffffffff1673ffffffffffffffffffffffffffffffffffffffff1673ffffffffffffffffffffffffffffffffffffffff16815260200160068201805461070b906119af565b80601f0160208091040260200160405190810160405280929190818152602001828054610737906119af565b80156107845780601f1061075957610100808354040283529160200191610784565b820191906000526020600020905b81548152906001019060200180831161076757829003601f168201915b505050505081525050815260200190600101906104b8565b50505050905090565b600081815481106107b557600080fd5b90600052602060002090600702016000915090508060000154908060010154908060020180546107e4906119af565b80601f0160208091040260200160405190810160405280929190818152602001828054610810906119af565b801561085d5780601f106108325761010080835404028352916020019161085d565b820191906000526020600020905b81548152906001019060200180831161084057829003601f168201915b505050505090806003018054610872906119af565b80601f016020809104026020016040519081016040528092919081815260200182805461089e906119af565b80156108eb5780601f106108c0576101008083540402835291602001916108eb565b820191906000526020600020905b8154815290600101906020018083116108ce57829003601f168201915b505050505090806004018054610900906119af565b80601f016020809104026020016040519081016040528092919081815260200182805461092c906119af565b80156109795780601f1061094e57610100808354040283529160200191610979565b820191906000526020600020905b81548152906001019060200180831161095c57829003601f168201915b5050505050908060050160009054906101000a900473ffffffffffffffffffffffffffffffffffffffff16908060060180546109b4906119af565b80601f01602080910402602001604051908101604052809291908181526020018280546109e0906119af565b8015610a2d5780601f10610a0257610100808354040283529160200191610a2d565b820191906000526020600020905b815481529060010190602001808311610a1057829003601f168201915b5050505050905087565b60008060608060606000606080886000805490508110610a8c576040517f08c379a0000000000000000000000000000000000000000000000000000000008152600401610a83906118ac565b60405180910390fd5b6000808b81548110610aa157610aa06118cc565b5b90600052602060002090600702016040518060e00160405290816000820154815260200160018201548152602001600282018054610ade906119af565b80601f0160208091040260200160405190810160405280929190818152602001828054610b0a906119af565b8015610b575780601f10610b2c57610100808354040283529160200191610b57565b820191906000526020600020905b815481529060010190602001808311610b3a57829003601f168201915b50505050508152602001600382018054610b70906119af565b80601f0160208091040260200160405190810160405280929190818152602001828054610b9c906119af565b8015610be95780601f10610bbe57610100808354040283529160200191610be9565b820191906000526020600020905b815481529060010190602001808311610bcc57829003601f168201915b50505050508152602001600482018054610c02906119af565b80601f0160208091040260200160405190810160405280929190818152602001828054610c2e906119af565b8015610c7b5780601f10610c5057610100808354040283529160200191610c7b565b820191906000526020600020905b815481529060010190602001808311610c5e57829003601f168201915b505050505081526020016005820160009054906101000a900473ffffffffffffffffffffffffffffffffffffffff1673ffffffffffffffffffffffffffffffffffffffff1673ffffffffffffffffffffffffffffffffffffffff168152602001600682018054610cea906119af565b80601f0160208091040260200160405190810160405280929190818152602001828054610d16906119af565b8015610d635780601f10610d3857610100808354040283529160200191610d63565b820191906000526020600020905b815481529060010190602001808311610d4657829003601f168201915b50505050508152505090506000600160008d8152602001908152602001600020805480602002602001604051908101604052809291908181526020016000905b82821015610e7b5783829060005260206000209060030201604051806060016040529081600082018054610dd6906119af565b80601f0160208091040260200160405190810160405280929190818152602001828054610e02906119af565b8015610e4f5780601f10610e2457610100808354040283529160200191610e4f565b820191906000526020600020905b815481529060010190602001808311610e3257829003601f168201915b505050505081526020016001820154815260200160028201548152505081526020019060010190610da3565b505050509050816000015182602001518360400151846060015185608001518660a001518760c00151879a509a509a509a509a509a509a509a50505050919395975091939597565b828054610ecf906119af565b90600052602060002090601f016020900481019282610ef15760008555610f38565b82601f10610f0a57805160ff1916838001178555610f38565b82800160010185558215610f38579182015b82811115610f37578251825591602001919060010190610f1c565b5b509050610f459190610f49565b5090565b5b80821115610f62576000816000905550600101610f4a565b5090565b6000604051905090565b600080fd5b600080fd5b6000819050919050565b610f8d81610f7a565b8114610f9857600080fd5b50565b600081359050610faa81610f84565b92915050565b600080fd5b600080fd5b6000601f19601f8301169050919050565b7f4e487b7100000000000000000000000000000000000000000000000000000000600052604160045260246000fd5b61100382610fba565b810181811067ffffffffffffffff8211171561102257611021610fcb565b5b80604052505050565b6000611035610f66565b90506110418282610ffa565b919050565b600067ffffffffffffffff82111561106157611060610fcb565b5b61106a82610fba565b9050602081019050919050565b82818337600083830152505050565b600061109961109484611046565b61102b565b9050828152602081018484840111156110b5576110b4610fb5565b5b6110c0848285611077565b509392505050565b600082601f8301126110dd576110dc610fb0565b5b81356110ed848260208601611086565b91505092915050565b600080600080608085870312156111105761110f610f70565b5b600061111e87828801610f9b565b945050602085013567ffffffffffffffff81111561113f5761113e610f75565b5b61114b878288016110c8565b935050604061115c87828801610f9b565b925050606061116d87828801610f9b565b91505092959194509250565b600080604083850312156111905761118f610f70565b5b600061119e85828601610f9b565b92505060206111af85828601610f9b565b9150509250929050565b600081519050919050565b600082825260208201905092915050565b60005b838110156111f35780820151818401526020810190506111d8565b83811115611202576000848401525b50505050565b6000611213826111b9565b61121d81856111c4565b935061122d8185602086016111d5565b61123681610fba565b840191505092915050565b61124a81610f7a565b82525050565b6000606082019050818103600083015261126a8186611208565b90506112796020830185611241565b6112866040830184611241565b949350505050565b600073ffffffffffffffffffffffffffffffffffffffff82169050919050565b60006112b98261128e565b9050919050565b6112c9816112ae565b81146112d457600080fd5b50565b6000813590506112e6816112c0565b92915050565b60008060008060008060c0878903121561130957611308610f70565b5b600061131789828a01610f9b565b965050602087013567ffffffffffffffff81111561133857611337610f75565b5b61134489828a016110c8565b955050604087013567ffffffffffffffff81111561136557611364610f75565b5b61137189828a016110c8565b945050606087013567ffffffffffffffff81111561139257611391610f75565b5b61139e89828a016110c8565b93505060806113af89828a016112d7565b92505060a087013567ffffffffffffffff8111156113d0576113cf610f75565b5b6113dc89828a016110c8565b9150509295509295509295565b600081519050919050565b600082825260208201905092915050565b6000819050602082019050919050565b61141e81610f7a565b82525050565b600082825260208201905092915050565b6000611440826111b9565b61144a8185611424565b935061145a8185602086016111d5565b61146381610fba565b840191505092915050565b611477816112ae565b82525050565b600060e0830160008301516114956000860182611415565b5060208301516114a86020860182611415565b50604083015184820360408601526114c08282611435565b915050606083015184820360608601526114da8282611435565b915050608083015184820360808601526114f48282611435565b91505060a083015161150960a086018261146e565b5060c083015184820360c08601526115218282611435565b9150508091505092915050565b600061153a838361147d565b905092915050565b6000602082019050919050565b600061155a826113e9565b61156481856113f4565b93508360208202850161157685611405565b8060005b858110156115b25784840389528151611593858261152e565b945061159e83611542565b925060208a0199505060018101905061157a565b50829750879550505050505092915050565b600060208201905081810360008301526115de818461154f565b905092915050565b6000602082840312156115fc576115fb610f70565b5b600061160a84828501610f9b565b91505092915050565b61161c816112ae565b82525050565b600060e082019050611637600083018a611241565b6116446020830189611241565b81810360408301526116568188611208565b9050818103606083015261166a8187611208565b9050818103608083015261167e8186611208565b905061168d60a0830185611613565b81810360c083015261169f8184611208565b905098975050505050505050565b600081519050919050565b600082825260208201905092915050565b6000819050602082019050919050565b600060608301600083015184820360008601526116f68282611435565b915050602083015161170b6020860182611415565b50604083015161171e6040860182611415565b508091505092915050565b600061173583836116d9565b905092915050565b6000602082019050919050565b6000611755826116ad565b61175f81856116b8565b935083602082028501611771856116c9565b8060005b858110156117ad578484038952815161178e8582611729565b94506117998361173d565b925060208a01995050600181019050611775565b50829750879550505050505092915050565b6000610100820190506117d5600083018b611241565b6117e2602083018a611241565b81810360408301526117f48189611208565b905081810360608301526118088188611208565b9050818103608083015261181c8187611208565b905061182b60a0830186611613565b81810360c083015261183d8185611208565b905081810360e0830152611851818461174a565b90509998505050505050505050565b7f496e76616c696420696e64657800000000000000000000000000000000000000600082015250565b6000611896600d836111c4565b91506118a182611860565b602082019050919050565b600060208201905081810360008301526118c581611889565b9050919050565b7f4e487b7100000000000000000000000000000000000000000000000000000000600052603260045260246000fd5b7f4e487b7100000000000000000000000000000000000000000000000000000000600052601160045260246000fd5b600061193582610f7a565b915061194083610f7a565b9250827fffffffffffffffffffffffffffffffffffffffffffffffffffffffffffffffff03821115611975576119746118fb565b5b828201905092915050565b7f4e487b7100000000000000000000000000000000000000000000000000000000600052602260045260246000fd5b600060028204905060018216806119c757607f821691505b6020821081036119da576119d9611980565b5b5091905056fea26469706673582212208390e607897312cb319d455da2233b5c0df04157b3421b3dc61aa369b7f9687264736f6c634300080d0033",
  "immutableReferences": {},
  "source": "// SPDX-License-Identifier: GPL-3.0\r\npragma solidity >=0.7.0 <0.9.0;\r\n\r\ncontract FundRaising {\r\n\r\n    // Donation  \r\n    struct Donation {\r\n        string donorName; //  \r\n        uint date; //   (Unix )\r\n        uint amount; //  \r\n    }\r\n\r\n    // Funding  \r\n    struct Funding {\r\n        uint goalAmount; //   \r\n        uint currentAmount; //  \r\n        string startTime; //   (Unix )\r\n        string endTime; //   (Unix )\r\n        string title; //  \r\n        address hospitalAddr; //     \r\n        string hospitalName; //  \r\n    }\r\n\r\n    // Funding \r\n    Funding[] public fundings;\r\n\r\n    //  Funding  Donation   \r\n    mapping(uint => Donation[]) public fundingDonations;\r\n\r\n    // index   modifier\r\n    modifier validIndex(uint index) {\r\n        require(index < fundings.length, \"Invalid index\");\r\n        _;\r\n    }\r\n\r\n    // Funding   \r\n    function createFunding(uint _goalAmount, string memory _startTime, string memory _endTime, string memory _title, address _hospitalAddr, string memory _hospitalName) public {\r\n        fundings.push(Funding(_goalAmount, 0, _startTime, _endTime, _title, _hospitalAddr, _hospitalName));\r\n    }\r\n\r\n    //   \r\n    function addDonation(uint index, string memory donorName, uint date, uint amount) public validIndex(index) {\r\n\r\n        //     \r\n        Donation memory newDonation = Donation(donorName, date, amount);\r\n        fundingDonations[index].push(newDonation);\r\n\r\n        //    \r\n        fundings[index].currentAmount += amount;\r\n    }\r\n\r\n    // Funding   (+  )\r\n    function getFunding(uint index) public view validIndex(index) returns (uint, uint, string memory, string memory, string memory, address, string memory, Donation[] memory) {\r\n        Funding memory funding = fundings[index];\r\n        Donation[] memory donations = fundingDonations[index];\r\n        return (funding.goalAmount, funding.currentAmount, funding.startTime, funding.endTime, funding.title, funding.hospitalAddr, funding.hospitalName, donations);\r\n    }\r\n\r\n    //    \r\n    function getAllFundings() public view returns (Funding[] memory) {\r\n        return fundings;\r\n    }\r\n\r\n}\r\n\r\n\r\n\r\n",
  "sourcePath": "C:\\Users\\SSAFY\\Desktop\\ sub2\\S10P22C206\\smart-contracts\\contracts\\FundRaising.sol",
  "compiler": {
    "name": "solc",
    "version": "0.8.13+commit.abaa5c0e.Emscripten.clang"
  },
  "schemaVersion": "3.4.16",
  "updatedAt": "2024-04-01T12:38:05.186Z",
  "networkType": "ethereum",
  "devdoc": {
    "kind": "dev",
    "methods": {},
    "version": 1
  },
  "userdoc": {
    "kind": "user",
    "methods": {},
    "version": 1
  }
}